S015000064687431315F73656E736F72312E7372656343
S11300000C942A000C9447000C9447000C9447006D
S11300100C9447000C9447000C9447000C94470040
S11300200C9447000C9447000C9447000C94470030
S11300300C9447000C9447000C9447000C94470020
S11300400C9447000C9447000C9447000C94470010
S11300500C94470011241FBECFE5D8E0DEBFCDBF0E
S113006010E0A0E6B0E0E4E7F4E002C005900D92F1
S1130070AA38B107D9F720E0AAE8B0E001C01D9280
S1130080A039B207E1F70E9431010C9438020C94B4
S1130090000098B39F70282F207F922B98BB98B3B1
S11300A09E7F98BB98B3926098BB000098B39D7FE5
S11300B098BB31E23A95F1F7000028B330E1839F11
S11300C0C0011124922F9F70892B88BB88B3826052
S11300D088BB000088B38D7F88BB83EF91E00197D4
S11300E0F1F700C00000089598B39F70282F207F77
S11300F0922B98BB98B3916098BB98B3926098BBCD
S1130100000098B39D7F98BB31E23A95F1F7000067
S113011028B330E1839FC0011124922F9F70892B53
S113012088BB88B3826088BB000088B38D7F88BB9E
S113013083EF91E00197F1F700C0000008958FEF7D
S113014087BB8FE493EC0197F1F700C0000083E3D1
S11301500E94490082E30E94490088E20E9449000B
S11301608CE00E94490081E00E94490083EF91E005
S11301700197F1F700C0000082E80E944900089549
S1130180CF93DF9300D0CDB7DEB790E8998390EC9E
S11301909A83E1E0F0E0EC0FFD1FE60FF11D908182
S11301A0890F0E9449000F900F90DF91CF9108951D
S11301B00F931F93CF938C01C0E003C00E9474007F
S11301C0CF5FF801EC0FF11D80818111F7CFCF9142
S11301D01F910F91089581E00E94490083EF91E0FF
S11301E00197F1F700C00000089581B3806481BBDA
S11301F082B38F7B82BB87E893E10197F1F700C05C
S1130200000082B3806482BB089581B38F7B81BB7D
S11302108699FECF869BFECF8699FECF089520E077
S113022030E019C0869BFECF8AE08A95F1F7869B61
S113023009C080918A0090E0880F991F81608093A3
S11302408A0005C080918A00880F80938A0086996D
S1130250FECF2F5F3F4F2830310524F380918A0071
S11302600895CF93DF9300D000D01F92CDB7DEB7AF
S113027084B3816084BB0E949F000E94EB0060E015
S113028080E00E94C00080E690E00E94D80060E018
S113029088E00E94C00083E690E00E94D8000E949B
S11302A0F5000E9405010E940F0180938E000E94B8
S11302B00F0180938B000E940F0180938D000E9498
S11302C00F0180938F000E940F0180938C00E091B6
S11302D08E00F0E090918B009F01290F311D9091C9
S11302E08D00290F311D90918F00290F311D482F4A
S11302F050E02417350749F060E080E00E94C00018
S113030087E690E00E94D8004DC04AE0BE016F5FCE
S11303107F4FCF010E94030260E082E00E94C00090
S1130320CE0101960E94D8008DE690E00E94D8008C
S113033080918B004AE0BE016F5F7F4F90E00E9486
S11303400302CE0101960E94D8008FE690E00E943D
S1130350D80080918D004AE0BE016F5F7F4F90E02E
S11303600E94030260E08AE00E94C000CE01019670
S11303700E94D8008DE690E00E94D80080918F0002
S11303804AE0BE016F5F7F4F90E00E940302CE01FE
S113039001960E94D8008FED0E94740081E790E0DE
S11303A00E94D8002FE986E891E0215080409040D7
S11303B0E1F700C0000020918E0080918B0090E056
S11303C0820F911D8C34910564F461E080E00E94F9
S11303D0C00084E790E00E94D80085B3816085BBAB
S11303E00BC061E080E00E94C0008FE790E00E94B3
S11303F0D80085B38E7F85BB87EA91E60197F1F734
S113040000C000004CCFBB274A3031F4992322F4BA
S1130410BDE2909581959F4F0C940F02BB27FB0181
S11304205527AA27880F991FAA1FA41710F0A41BE9
S113043083955051B9F7A05DAA3308F0A95DA19343
S1130440009779F7B111B1931192CB010C94280262
S1130450DC01FC01672F71917723E1F7329704C027
S11304607C916D9370836291AE17BF07C8F30895B2
S1070470F894FFCF2A
S1130474483D00543D20004572726F72002E0025E1
S113048400432000464F47474552204F4E20004624
S10D04944F47474552204F464600EB
S9030000FC
