:100000000C942A000C9447000C9447000C94470071
:100010000C9447000C9447000C9447000C94470044
:100020000C9447000C9447000C9447000C94470034
:100030000C9447000C9447000C9447000C94470024
:100040000C9447000C9447000C9447000C94470014
:100050000C94470011241FBECFE5D8E0DEBFCDBF12
:1000600010E0A0E6B0E0E8E9F4E002C005900D92EF
:10007000A638B107D9F720E0A6E8B0E001C01D928C
:10008000AC38B207E1F70E9431010C944A020C949B
:10009000000098B39F70282F207F922B98BB98B3B5
:1000A0009E7F98BB98B3926098BB000098B39D7FE9
:1000B00098BB31E23A95F1F7000028B330E1839F15
:1000C000C0011124922F9F70892B88BB88B3826056
:1000D00088BB000088B38D7F88BB83EF91E00197D8
:1000E000F1F700C00000089598B39F70282F207F7B
:1000F000922B98BB98B3916098BB98B3926098BBD1
:10010000000098B39D7F98BB31E23A95F1F700006B
:1001100028B330E1839FC0011124922F9F70892B57
:1001200088BB88B3826088BB000088B38D7F88BBA2
:1001300083EF91E00197F1F700C0000008958FEF81
:1001400087BB8FE493EC0197F1F700C0000083E3D5
:100150000E94490082E30E94490088E20E9449000F
:100160008CE00E94490081E00E94490083EF91E009
:100170000197F1F700C0000082E80E94490008954D
:10018000CF93DF9300D0CDB7DEB790E8998390ECA2
:100190009A83E1E0F0E0EC0FFD1FE60FF11D908186
:1001A000890F0E9449000F900F90DF91CF91089521
:1001B0000F931F93CF938C01C0E003C00E94740083
:1001C000CF5FF801EC0FF11D80818111F7CFCF9146
:1001D0001F910F91089581E00E94490083EF91E003
:1001E0000197F1F700C00000089581B3806481BBDE
:1001F00082B38F7B82BB87E893E10197F1F700C060
:10020000000082B3806482BB089581B38F7B81BB81
:100210008699FECF869BFECF8699FECF089520E07B
:1002200030E019C0869BFECF8AE08A95F1F7869B65
:1002300009C08091860090E0880F991F81608093AB
:10024000860005C080918600880F8093860086997D
:10025000FECF2F5F3F4F2830310524F38091860079
:100260000895CF93DF9300D000D01F92CDB7DEB7B3
:100270008FEF84BB0E949F000E94EB0060E080E053
:100280000E94C00080E690E00E94D80060E088E014
:100290000E94C00083E690E00E94D8000E94F50012
:1002A0000E9405010E940F0180938A000E940F01A5
:1002B000809387000E940F01809389000E940F01A4
:1002C00080938B000E940F0180938800E0918A0048
:1002D000F0E0909187009F01290F311D90918900D6
:1002E000290F311D90918B00290F311D482F50E0AF
:1002F0002417350749F060E080E00E94C00087E6DF
:1003000090E00E94D8004DC04AE0BE016F5F7F4F71
:10031000CF010E94150260E082E00E94C000CE0181
:1003200001960E94D8008DE690E00E94D80080914E
:1003300087004AE0BE016F5F7F4F90E00E94150288
:10034000CE0101960E94D8008FE690E00E94D8006E
:10035000809189004AE0BE016F5F7F4F90E00E946C
:10036000150260E08AE00E94C000CE0101960E9462
:10037000D8008DE690E00E94D80080918B004AE082
:10038000BE016F5F7F4F90E00E941502CE01019683
:100390000E94D8008FED0E94740081E790E00E94D7
:1003A000D8002FE986E891E0215080409040E1F7A5
:1003B00000C000002091890080918B0090E0820FA6
:1003C000911D499744F461E080E00E94C00084E7F9
:1003D00090E00E94D8002091890080918B0090E0ED
:1003E000820F911D4E9744F061E085E00E94C000AD
:1003F00089E790E00E94D80020918A0080918700D0
:1004000090E0820F911D8C34910544F461E08BE003
:100410000E94C0008FE790E00E94D80087EA91E632
:100420000197F1F700C0000039CFBB274A3031F403
:10043000992322F4BDE2909581959F4F0C9421025F
:10044000BB27FB015527AA27880F991FAA1FA417AE
:1004500010F0A41B83955051B9F7A05DAA3308F0A2
:10046000A95DA193009779F7B111B1931192CB01D6
:100470000C943A02DC01FC01672F71917723E1F7BC
:10048000329704C07C916D9370836291AE17BF0761
:08049000C8F30895F894FFCFB2
:10049800483D00543D20004572726F72002E0025C1
:1004A8000043200048204F4E004641204F4E004652
:0604B8004F204F4E000032
:00000001FF
